{
  "_format": "hh-sol-artifact-1",
  "contractName": "VaquinhaFactory",
  "sourceName": "contracts/VaquinhaFactory.sol",
  "abi": [
    {
      "anonymous": false,
      "inputs": [
        {
          "indexed": false,
          "internalType": "address",
          "name": "vaquinha",
          "type": "address"
        },
        {
          "indexed": false,
          "internalType": "string",
          "name": "titulo",
          "type": "string"
        },
        {
          "indexed": false,
          "internalType": "address",
          "name": "organizador",
          "type": "address"
        }
      ],
      "name": "NovaVaquinha",
      "type": "event"
    },
    {
      "inputs": [
        {
          "internalType": "string",
          "name": "_titulo",
          "type": "string"
        },
        {
          "internalType": "string",
          "name": "_descricao",
          "type": "string"
        },
        {
          "internalType": "uint256",
          "name": "_meta",
          "type": "uint256"
        },
        {
          "internalType": "string",
          "name": "_unidade",
          "type": "string"
        }
      ],
      "name": "criarVaquinha",
      "outputs": [],
      "stateMutability": "nonpayable",
      "type": "function"
    },
    {
      "inputs": [],
      "name": "listarVaquinhas",
      "outputs": [
        {
          "internalType": "address[]",
          "name": "",
          "type": "address[]"
        }
      ],
      "stateMutability": "view",
      "type": "function"
    },
    {
      "inputs": [
        {
          "internalType": "uint256",
          "name": "",
          "type": "uint256"
        }
      ],
      "name": "vaquinhas",
      "outputs": [
        {
          "internalType": "address",
          "name": "",
          "type": "address"
        }
      ],
      "stateMutability": "view",
      "type": "function"
    }
  ],
  "bytecode": "0x608060405234801561001057600080fd5b50611c19806100206000396000f3fe60806040523480156200001157600080fd5b5060043610620000465760003560e01c8063235e12ce146200004b578063c0c59138146200006d578063e0a276b3146200008d575b600080fd5b62000055620000c3565b6040516200006491906200038f565b60405180910390f35b6200008b600480360381019062000085919062000564565b62000153565b005b620000ab6004803603810190620000a5919062000633565b6200023f565b604051620000ba919062000676565b60405180910390f35b606060008054806020026020016040519081016040528092919081815260200182805480156200014957602002820191906000526020600020905b8160009054906101000a900473ffffffffffffffffffffffffffffffffffffffff1673ffffffffffffffffffffffffffffffffffffffff1681526020019060010190808311620000fe575b5050505050905090565b6000848484843360405162000168906200027f565b620001789594939291906200072d565b604051809103906000f08015801562000195573d6000803e3d6000fd5b5090506000819080600181540180825580915050600190039060005260206000200160009091909190916101000a81548173ffffffffffffffffffffffffffffffffffffffff021916908373ffffffffffffffffffffffffffffffffffffffff1602179055507fff5ce27183cca8d885fd394c3916584994e9b1df1899f60b1ee1f1de9c7f2a4e81863360405162000230939291906200079f565b60405180910390a15050505050565b600081815481106200025057600080fd5b906000526020600020016000915054906101000a900473ffffffffffffffffffffffffffffffffffffffff1681565b61140080620007e483390190565b600081519050919050565b600082825260208201905092915050565b6000819050602082019050919050565b600073ffffffffffffffffffffffffffffffffffffffff82169050919050565b6000620002e682620002b9565b9050919050565b620002f881620002d9565b82525050565b60006200030c8383620002ed565b60208301905092915050565b6000602082019050919050565b600062000332826200028d565b6200033e818562000298565b93506200034b83620002a9565b8060005b8381101562000382578151620003668882620002fe565b9750620003738362000318565b9250506001810190506200034f565b5085935050505092915050565b60006020820190508181036000830152620003ab818462000325565b905092915050565b6000604051905090565b600080fd5b600080fd5b600080fd5b600080fd5b6000601f19601f8301169050919050565b7f4e487b7100000000000000000000000000000000000000000000000000000000600052604160045260246000fd5b6200041c82620003d1565b810181811067ffffffffffffffff821117156200043e576200043d620003e2565b5b80604052505050565b600062000453620003b3565b905062000461828262000411565b919050565b600067ffffffffffffffff821115620004845762000483620003e2565b5b6200048f82620003d1565b9050602081019050919050565b82818337600083830152505050565b6000620004c2620004bc8462000466565b62000447565b905082815260208101848484011115620004e157620004e0620003cc565b5b620004ee8482856200049c565b509392505050565b600082601f8301126200050e576200050d620003c7565b5b813562000520848260208601620004ab565b91505092915050565b6000819050919050565b6200053e8162000529565b81146200054a57600080fd5b50565b6000813590506200055e8162000533565b92915050565b60008060008060808587031215620005815762000580620003bd565b5b600085013567ffffffffffffffff811115620005a257620005a1620003c2565b5b620005b087828801620004f6565b945050602085013567ffffffffffffffff811115620005d457620005d3620003c2565b5b620005e287828801620004f6565b9350506040620005f5878288016200054d565b925050606085013567ffffffffffffffff811115620006195762000618620003c2565b5b6200062787828801620004f6565b91505092959194509250565b6000602082840312156200064c576200064b620003bd565b5b60006200065c848285016200054d565b91505092915050565b6200067081620002d9565b82525050565b60006020820190506200068d600083018462000665565b92915050565b600081519050919050565b600082825260208201905092915050565b60005b83811015620006cf578082015181840152602081019050620006b2565b60008484015250505050565b6000620006e88262000693565b620006f481856200069e565b935062000706818560208601620006af565b6200071181620003d1565b840191505092915050565b620007278162000529565b82525050565b600060a0820190508181036000830152620007498188620006db565b905081810360208301526200075f8187620006db565b90506200077060408301866200071c565b8181036060830152620007848185620006db565b905062000795608083018462000665565b9695505050505050565b6000606082019050620007b6600083018662000665565b8181036020830152620007ca8185620006db565b9050620007db604083018462000665565b94935050505056fe60806040523480156200001157600080fd5b50604051620014003803806200140083398181016040528101906200003791906200030d565b846001908162000048919062000633565b5083600290816200005a919062000633565b5082600381905550816005908162000073919062000633565b50806000806101000a81548173ffffffffffffffffffffffffffffffffffffffff021916908373ffffffffffffffffffffffffffffffffffffffff1602179055506000600660006101000a81548160ff02191690831515021790555050505050506200071a565b6000604051905090565b600080fd5b600080fd5b600080fd5b600080fd5b6000601f19601f8301169050919050565b7f4e487b7100000000000000000000000000000000000000000000000000000000600052604160045260246000fd5b6200014382620000f8565b810181811067ffffffffffffffff8211171562000165576200016462000109565b5b80604052505050565b60006200017a620000da565b905062000188828262000138565b919050565b600067ffffffffffffffff821115620001ab57620001aa62000109565b5b620001b682620000f8565b9050602081019050919050565b60005b83811015620001e3578082015181840152602081019050620001c6565b60008484015250505050565b60006200020662000200846200018d565b6200016e565b905082815260208101848484011115620002255762000224620000f3565b5b62000232848285620001c3565b509392505050565b600082601f830112620002525762000251620000ee565b5b815162000264848260208601620001ef565b91505092915050565b6000819050919050565b62000282816200026d565b81146200028e57600080fd5b50565b600081519050620002a28162000277565b92915050565b600073ffffffffffffffffffffffffffffffffffffffff82169050919050565b6000620002d582620002a8565b9050919050565b620002e781620002c8565b8114620002f357600080fd5b50565b6000815190506200030781620002dc565b92915050565b600080600080600060a086880312156200032c576200032b620000e4565b5b600086015167ffffffffffffffff8111156200034d576200034c620000e9565b5b6200035b888289016200023a565b955050602086015167ffffffffffffffff8111156200037f576200037e620000e9565b5b6200038d888289016200023a565b9450506040620003a08882890162000291565b935050606086015167ffffffffffffffff811115620003c457620003c3620000e9565b5b620003d2888289016200023a565b9250506080620003e588828901620002f6565b9150509295509295909350565b600081519050919050565b7f4e487b7100000000000000000000000000000000000000000000000000000000600052602260045260246000fd5b600060028204905060018216806200044557607f821691505b6020821081036200045b576200045a620003fd565b5b50919050565b60008190508160005260206000209050919050565b60006020601f8301049050919050565b600082821b905092915050565b600060088302620004c57fffffffffffffffffffffffffffffffffffffffffffffffffffffffffffffffff8262000486565b620004d1868362000486565b95508019841693508086168417925050509392505050565b6000819050919050565b6000620005146200050e62000508846200026d565b620004e9565b6200026d565b9050919050565b6000819050919050565b6200053083620004f3565b620005486200053f826200051b565b84845462000493565b825550505050565b600090565b6200055f62000550565b6200056c81848462000525565b505050565b5b8181101562000594576200058860008262000555565b60018101905062000572565b5050565b601f821115620005e357620005ad8162000461565b620005b88462000476565b81016020851015620005c8578190505b620005e0620005d78562000476565b83018262000571565b50505b505050565b600082821c905092915050565b60006200060860001984600802620005e8565b1980831691505092915050565b6000620006238383620005f5565b9150826002028217905092915050565b6200063e82620003f2565b67ffffffffffffffff8111156200065a576200065962000109565b5b6200066682546200042c565b6200067382828562000598565b600060209050601f831160018114620006ab576000841562000696578287015190505b620006a2858262000615565b86555062000712565b601f198416620006bb8662000461565b60005b82811015620006e557848901518255600182019150602085019450602081019050620006be565b8683101562000705578489015162000701601f891682620005f5565b8355505b6001600288020188555050505b505050505050565b610cd6806200072a6000396000f3fe6080604052600436106100905760003560e01c8063824dcda711610059578063824dcda71461016a578063ab24edd014610195578063c885044e1461019f578063dcf654a0146101ca578063f0eb6e82146101f557610090565b8062dd23251461009557806302c905f9146100c057806332a416b8146100eb578063391b1ab0146101285780634735a44214610153575b600080fd5b3480156100a157600080fd5b506100aa610220565b6040516100b79190610758565b60405180910390f35b3480156100cc57600080fd5b506100d5610226565b6040516100e29190610803565b60405180910390f35b3480156100f757600080fd5b50610112600480360381019061010d9190610888565b6102b4565b60405161011f9190610758565b60405180910390f35b34801561013457600080fd5b5061013d6102cc565b60405161014a9190610803565b60405180910390f35b34801561015f57600080fd5b5061016861035a565b005b34801561017657600080fd5b5061017f61054b565b60405161018c91906108d0565b60405180910390f35b61019d61055e565b005b3480156101ab57600080fd5b506101b4610687565b6040516101c19190610758565b60405180910390f35b3480156101d657600080fd5b506101df61068d565b6040516101ec91906108fa565b60405180910390f35b34801561020157600080fd5b5061020a6106b1565b6040516102179190610803565b60405180910390f35b60045481565b6002805461023390610944565b80601f016020809104026020016040519081016040528092919081815260200182805461025f90610944565b80156102ac5780601f10610281576101008083540402835291602001916102ac565b820191906000526020600020905b81548152906001019060200180831161028f57829003601f168201915b505050505081565b60076020528060005260406000206000915090505481565b600180546102d990610944565b80601f016020809104026020016040519081016040528092919081815260200182805461030590610944565b80156103525780601f1061032757610100808354040283529160200191610352565b820191906000526020600020905b81548152906001019060200180831161033557829003601f168201915b505050505081565b60008054906101000a900473ffffffffffffffffffffffffffffffffffffffff1673ffffffffffffffffffffffffffffffffffffffff163373ffffffffffffffffffffffffffffffffffffffff16146103e8576040517f08c379a00000000000000000000000000000000000000000000000000000000081526004016103df906109e7565b60405180910390fd5b600354600454101561042f576040517f08c379a000000000000000000000000000000000000000000000000000000000815260040161042690610a53565b60405180910390fd5b60001515600660009054906101000a900460ff16151514610485576040517f08c379a000000000000000000000000000000000000000000000000000000000815260040161047c90610abf565b60405180910390fd5b6000600454905060008054906101000a900473ffffffffffffffffffffffffffffffffffffffff1673ffffffffffffffffffffffffffffffffffffffff166108fc829081150290604051600060405180830381858888f193505050501580156104f2573d6000803e3d6000fd5b506001600660006101000a81548160ff0219169083151502179055507fc4d30f700455af0b7a1ce50fbcbcfa16ca31aa33cdfc0e69cde1cb89c1bbf890816005604051610540929190610b78565b60405180910390a150565b600660009054906101000a900460ff1681565b600034116105a1576040517f08c379a000000000000000000000000000000000000000000000000000000000815260040161059890610bf4565b60405180910390fd5b34600760003373ffffffffffffffffffffffffffffffffffffffff1673ffffffffffffffffffffffffffffffffffffffff16815260200190815260200160002060008282546105f09190610c43565b9250508190555034600460008282546106099190610c43565b925050819055507f2318bbb3ac080b13be914dee3f9f8905f0f1af9c63dae94eb0c39f3fca343dca60405160405180910390a160035460045410610685577f45182080857e525e3cee656bd6a5ae1292255b76f7870b30bb4265530736d10260045460035460405161067c929190610c77565b60405180910390a15b565b60035481565b60008054906101000a900473ffffffffffffffffffffffffffffffffffffffff1681565b600580546106be90610944565b80601f01602080910402602001604051908101604052809291908181526020018280546106ea90610944565b80156107375780601f1061070c57610100808354040283529160200191610737565b820191906000526020600020905b81548152906001019060200180831161071a57829003601f168201915b505050505081565b6000819050919050565b6107528161073f565b82525050565b600060208201905061076d6000830184610749565b92915050565b600081519050919050565b600082825260208201905092915050565b60005b838110156107ad578082015181840152602081019050610792565b60008484015250505050565b6000601f19601f8301169050919050565b60006107d582610773565b6107df818561077e565b93506107ef81856020860161078f565b6107f8816107b9565b840191505092915050565b6000602082019050818103600083015261081d81846107ca565b905092915050565b600080fd5b600073ffffffffffffffffffffffffffffffffffffffff82169050919050565b60006108558261082a565b9050919050565b6108658161084a565b811461087057600080fd5b50565b6000813590506108828161085c565b92915050565b60006020828403121561089e5761089d610825565b5b60006108ac84828501610873565b91505092915050565b60008115159050919050565b6108ca816108b5565b82525050565b60006020820190506108e560008301846108c1565b92915050565b6108f48161084a565b82525050565b600060208201905061090f60008301846108eb565b92915050565b7f4e487b7100000000000000000000000000000000000000000000000000000000600052602260045260246000fd5b6000600282049050600182168061095c57607f821691505b60208210810361096f5761096e610915565b5b50919050565b7f4170656e6173206f206f7267616e697a61646f7220706f64652072657469726160008201527f722e000000000000000000000000000000000000000000000000000000000000602082015250565b60006109d160228361077e565b91506109dc82610975565b604082019050919050565b60006020820190508181036000830152610a00816109c4565b9050919050565b7f4d6574612061696e6461206e616f206174696e676964612e0000000000000000600082015250565b6000610a3d60188361077e565b9150610a4882610a07565b602082019050919050565b60006020820190508181036000830152610a6c81610a30565b9050919050565b7f56617175696e6861206e616f20657374612061746976612e0000000000000000600082015250565b6000610aa960188361077e565b9150610ab482610a73565b602082019050919050565b60006020820190508181036000830152610ad881610a9c565b9050919050565b60008190508160005260206000209050919050565b60008154610b0181610944565b610b0b818661077e565b94506001821660008114610b265760018114610b3c57610b6f565b60ff198316865281151560200286019350610b6f565b610b4585610adf565b60005b83811015610b6757815481890152600182019150602081019050610b48565b808801955050505b50505092915050565b6000604082019050610b8d6000830185610749565b8181036020830152610b9f8184610af4565b90509392505050565b7f446f6163616f206465766520736572206d61696f7220717565207a65726f2e00600082015250565b6000610bde601f8361077e565b9150610be982610ba8565b602082019050919050565b60006020820190508181036000830152610c0d81610bd1565b9050919050565b7f4e487b7100000000000000000000000000000000000000000000000000000000600052601160045260246000fd5b6000610c4e8261073f565b9150610c598361073f565b9250828201905080821115610c7157610c70610c14565b5b92915050565b6000604082019050610c8c6000830185610749565b610c996020830184610749565b939250505056fea2646970667358221220b2dc5fc707bffa2187a2b66cb59ec547ca258dec740287156732f3fedb630bc064736f6c63430008140033a264697066735822122005d5eb448d6e04a1dd19d6c2497addd457242cf85bd83d513a080bca29b269f264736f6c63430008140033",
  "linkReferences": {},
  "deployedLinkReferences": {}
}